:020000040800F2
:1000000068060020BD010008C5010008C7010008FE
:10001000C9010008CB010008CD0100080000000064
:10002000000000000000000000000000CF010008F8
:10003000D101000800000000D3010008D50100082C
:10004000D7010008D7010008D7010008D701000830
:10005000D7010008D7010008D7010008D701000820
:10006000D7010008D7010008D7010008D701000810
:10007000D7010008D7010008D7010008D701000800
:10008000D7010008D7010008D701000800000000D0
:10009000000000000000000000000000D701000880
:1000A000D7010008D7010008D7010008D7010008D0
:1000B000D7010008D7010008D7010008D7010008C0
:1000C000D7010008D7010008D7010008D7010008B0
:1000D000D7010008D7010008D7010008D7010008A0
:1000E000D7010008D7010008D70100080000000070
:1000F0000000000000000000000000000000000000
:1001000000000000000000000000000000000000EF
:100110000000000000000000D7010008D70100081F
:1001200000F002F800F03AF80AA090E8000C8244CF
:100130008344AAF10107DA4501D100F02FF8AFF2AC
:10014000090EBAE80F0013F0010F18BFFB1A43F0B5
:10015000010318472403000044030000103A24BFA1
:1001600078C878C1FAD8520724BF30C830C144BF1C
:1001700004680C607047000000230024002500265E
:10018000103A28BF78C1FBD8520728BF30C148BFFA
:100190000B6070471FB51FBD10B510BD00F031F8E2
:1001A0001146FFF7F7FF00F02FF900F04FF803B406
:1001B000FFF7F2FF03BC00F057F800000948804742
:1001C00009480047FEE7FEE7FEE7FEE7FEE7FEE739
:1001D000FEE7FEE7FEE7FEE704480549054A064B51
:1001E00070470000A50300082101000868000020F6
:1001F00068060020680200206802002070477047EF
:100200007047754600F02CF8AE4605006946534627
:1002100020F00700854618B020B5FFF7DDFFBDE8E8
:1002200020404FF000064FF000074FF000084FF05D
:10023000000B21F00701AC46ACE8C009ACE8C009EE
:10024000ACE8C009ACE8C0098D46704710B504465B
:10025000AFF300802046BDE81040FFF7A8BF0000C4
:10026000004870470800002001491820ABBEFEE797
:1002700026000200704770B50A461388002100BFAF
:1002800024E00BB300BF07290DDC8E006FF00F05D3
:10029000B54004682C400460D4788D00AC400568FB
:1002A0002C43046010E0A1F10805AE006FF00F05CB
:1002B000B54044682C404460D478A1F10805AD00F5
:1002C000AC4045682C4344605B10491C1029D8DBC6
:1002D00070BD4161704701617047024690680840F7
:1002E000704710B500F002F810BD00000CB50020FA
:1002F000019000902A48006840F480302849086046
:1003000000BF2748006800F4003000900198401CAE
:100310000190009818B90198B0F5A06FF1D120486C
:10032000006800F4003010B10120009001E00020CE
:1003300000900098012831D1194840681849486058
:10034000084640684860084640684860084640687B
:1003500020F47C1048600846406840F498104860DB
:100360000846006840F08070086000BF0C480068D4
:1003700000F000700028F9D00948406820F0030020
:10038000074948600846406840F00200486000BFE6
:100390000348406800F00C000828F9D10CBD0000AB
:1003A0000010024010B51448006840F001001249E6
:1003B000086008464068114908400F4948600846EF
:1003C00000680F4908400C4908600846006820F49E
:1003D000802008600846406820F4FE0048604FF422
:1003E0001F0088600020C862FFF77BFF4FF00060AD
:1003F0000449086010BD0000001002400000FFF832
:10040000FFFFF6FE08ED00E01648806940F014009A
:1004100014498861012014490880C8701348FFF707
:100420002AFF4FF44070104908800220C87010481D
:10043000FFF721FF14E001210C48FFF74EFF0D49A3
:10044000087008460078012805D14FF4407108482B
:10045000FFF741FF04E04FF440710548FFF739FF13
:10046000E9E70000001002400200002000080140FF
:100470000010014000000020980400080000002047
:10048000080000005C010008A0040008080000202B
:100490006006000078010008000000000000000075
:0400000508000121CD
:00000001FF
